:1008DA0046696E6765727072696E742054657374C6
:1008EA0000736561726368202066696E67657220AD
:1008FA0000416464202020202064656C65746500D2
:04090A002A0020009F
:1004C6001208637BFF7A0879DA7D017F011209ED54
:1004D600120ADF120B817FC87E00120B111208115F
:1004E6007F647E00120B117BFF7A0879EB7D027F19
:1004F600011209ED7BFF7A0879FB7D027F02120962
:10050600EDE54070157BFF7A09790A7D017F0112BE
:1005160009ED7BFF7A09790C8019E54064017022A8
:100526007BFF7A09790C7D017F011209ED7BFF7A49
:1005360009790A7D017F021209ED7BFF7A09790CA0
:100546008026E540640270277BFF7A09790C7D01DD
:100556007F011209ED7BFF7A09790C7D017F02127A
:1005660009ED7BFF7A09790A7D097F021209ED20E0
:10057600961C3096FDE54014600C14600E24027043
:100586000D1205B7800812035180031206872095C5
:10059600163095FDD3E54064809482500A0540E507
:1005A60040B40303E4F5407F647E00120B1102049D
:0105B600ED57
:020A13008F381A
:100A1500E4F539F539E539C395385016C2957FC8DF
:100A25007E00120B11D2957FC87E00120B1105397D
:020A350080E35C
:010A3700229C
:0A0B6700EF1F70011E144E70F722FC
:100B1100AD07AC06ED1DAE0470011C4E60097F7D72
:080B21007E00120B6780ED223B
:060B81007590FFC29322F3
:100ADF0043878075985053890F438920758BFF7515
:090AEF008DFFC2ABD28ED2AF2202
:080B71008F993099FDC2992211
:070B79003098FDC298AF990E
:010B80002252
:1001D6002020204164642046696E676572202020D5
:1001E6000020202049442069732020202020202040
:1001F60020005075742046696E67657220466972E4
:100206007374002020202020202020202020202061
:10021600202020005375636365737366756C2046F2
:1002260069727374005075742046696E6765722032
:10023600416761696E005375636365737366756CB8
:100246002053656320200049442069732020202024
:10025600202020202020200046696E642046696EFA
:100266006765722020202020002053656172636834
:100276002073756363657373200020536561726331
:100286006820206661696C65642000202020456D29
:1002960070747920616C6C20202020002020205969
:1002A6006573206F72206E6F203F20200020202073
:1002B600656D707479696E672020202020002020EB
:1002C60020416C6C20656D70747920202020004CD4
:1002D6006F6164696E6700446F636B696E672020A7
:1002E6006661696C75726500446F636B696E672041
:1002F60020737563636573730001000713000000C4
:1003060000001BEF01FFFFFFFF01000301000501D5
:1003160000040201000801000402020009010008AD
:100326000401000003E700F80100080401000000D2
:100336001300210100030500090100030D0011014E
:0B03460000031D00210000000000006B
:0F0B290002080000090A0100060601000B00196E
:10099B00E4F53BF53C7409253CF5827403353BF5D6
:1009AB0083E493FF120B71053CE53C7002053BC3DE
:0A09BB009406E53B6480948040DB65
:0109C500220F
:10090E00E4F534F53512099BE4F534F53574FF251D
:10091E0035F58274023534F583E493FF120B7105BD
:10092E0035E53570020534C3940AE534648094804D
:02093E0040DB9C
:010940002294
:020A5C008F38D1
:100A5E00E4F539E539C39538500E120B7974132528
:080A6E0039F8A607053980EBF9
:010A7600225D
:100A770012099BE4F538E53890030F93FF120B71C9
:090A87000538E538C3940640ED82
:010A90002243
:100A910012099BE4F538E53890031593FF120B71A9
:090AA1000538E538C3940740ED67
:010AAA002229
:10094100E4F536E53690030993FF120B710536E5A0
:1009510036C3940640EDE4F536E53690031C93FF6B
:0C096100120B710536E536C3940740ED1B
:01096D002267
:100AAB0012099BE4F538E53890032393FF120B7181
:090ABB000538E538C3940B40ED49
:010AC400220F
:100AC50012099BE4F536E53690033993FF120B7155
:090AD5000536E536C3940640ED38
:010ADE0022F5
:10096E00E4F534E53490030993FF120B710534E579
:10097E0034C3940640EDE4F534E53490033F93FF21
:0C098E00120B710534E534C3940640EDF3
:01099A00223A
:0207A900AB079C
:1007AB00E4F539F538F537F536EEF50FEBF510E4E2
:1007BB00F53A740A253AF8E6FFE4FCFDFEE5392F1D
:1007CB00F539EE3538F538ED3537F537EC3536F597
:1007DB0036053AE53AB407DAE4FFE538FEE4FDFC0A
:1007EB00780812016E8F11E539FF8F1212099BE405
:1007FB00F53A740A253AF8E6FF120B71053AE53A19
:05080B00C3940940ED5B
:0108100022C5
:1003510078337C007D007BFF7A03794B7E007F033D
:100361001200D37F01120B4FE4F508F5097BFF7AE8
:100371000179D67D017F011209ED7BFF7A0179E7D1
:100381007D017F021209ED2094083094030204C517
:1003910080F820951C3095FDE509B4E80CE508B41A
:1003A1000307E4F508F50980080509E50970020568
:1003B10008AB09753B037D0A7F0212089F2096ADA9
:1003C1003096FD7F01120B4F7BFF7A0179F87D0199
:1003D1007F011209ED7BFF7A0279097D017F02120B
:1003E10009ED30948820940520948280FB120A77CD
:1003F1007F0C120A5CE51C70E97F64FE120B11127E
:100401000A917F0C120A5C7F01120B4F7BFF7A026B
:10041100791A7D017F011209ED7F01120A137FE82C
:100421007E03120B117F01120B4F7BFF7A02792B96
:100431007D017F011209ED7BFF7A0279097D017F40
:10044100021209ED20940830940302036E80F81221
:100451000A777F0C120A5CE51C70E97FC8FE120B5B
:10046100117F01120B4F7BFF7A02793C7D017F01E5
:100471001209ED7BFF7A02794D7D017F021209EDB0
:10048100AB09753B037D077F0212089F1209417F6B
:100491000C120A5C120AC57F0C120A5CAF09AE0885
:1004A1001207A97F0C120A5C7F01120A137FD07E0A
:1004B10007120B117F01120B4F0509E509700205A7
:0404C1000802036EBC
:0104C5002214
:1005B700E4F533F53478357C00FD7BFF7A03794E1B
:1005C700FE7F031200D37F01120B4F7BFF7A027964
:1005D7005E7D017F011209ED7BFF7A0279097D01BA
:1005E7007F021209ED120A777F0C120A5CE51C6084
:1005F700030206807F64FE120B11120A917F0C1210
:100607000A5C120AAB7F10120A5CE51C7F01704777
:10061700120B4F7BFF7A02796F7D017F011209ED83
:100627007BFF7A0179E77D017F021209ED7F0112D5
:100637000A13AF1DEFFEAD1E7C00E42DF534EC3E32
:10064700F533AB34753B037D0B7F0212089F7FD0D8
:100657007E07120B118022120B4F7BFF7A027980E3
:100667007D017F011209ED7BFF7A0279097D017F08
:0F067700021209ED7F03120A133094030205CD1E
:010686002251
:10068700E4F5337F01120B4F7BFF7A0279917D01ED
:100697007F011209ED7BFF7A0279A27D017F0212A9
:1006A70009ED20966D3096FD7BFF7A0279B37D01C7
:1006B7007F011209ED7BFF7A0279097D017F021222
:1006C70009ED7F2C7E01120B117FC0120B4FE4F551
:1006D700337F2A120B5B7F647E00120B110533E513
:1006E70033C3941040EB12096E7F0C120A5C7F0132
:1006F700120B4F7BFF7A0279C47D017F011209ED4E
:100707007BFF7A0279097D017F021209ED7F0302DF
:050717000A1320948D7F
:01071C0022BA
:10081100E4F533751C017BFF7A0279D57D017F02F6
:100821001209EDE4F5337F2A120B5B7FC87E0012BB
:100831000B110533E533C3940840EB7BFF7A027952
:10084100DD7D017F021209ED12090E7F0C120A5C97
:10085100E51C700D7BFF7A0279EE7D017F021209A2
:01086100EDA9
:010862002273
:060B380001400001410034
:080AF800C2A58F80D2A77F0187
:100B00007E027DEFAC071FEC6006DDFEDEFC80F4AC
:010B100022C2
:0C0B4F00C2A6120AF8C2A77F01020B0028
:0C0B5B00D2A6120AF8C2A77F01020B000C
:100B3F00EDBF0103148002243F4480FF120B4F22AC
:0809C6008E3C8F3D8C3E8D3FFD
:1009CE007F017E00E4FBEBC3953FE53E6480F87447
:0E09DE008098500A7C007D0A1201260B80E8EA
:0109EC0022E8
:050A38007F38120B4F96
:100A3D007580FFC2A7C2A6D2A57F01120B00120AB4
:0E0A4D00FCAB807F01120B00C2A7EB20E7E597
:010A5B002278
:100863007F0F120B007F38120B4F7F05120B007F97
:1008730038120B4F7F05120B00120A38120A387F09
:1008830008120B4F120A3D7F01120B4F120A3D7FD4
:0C08930006120B4F120A3D7F0C020B4FA7
:0609ED008B388A39893ABB
:1009F300120B3FE4F53BAB38AA39A93A853B827524
:0F0A030083001200F9FF6007120B5B053B80E7D1
:010A120022C1
:02089F008B3A92
:1008A100120B3FAA3BEAD39400402DEA24FFFDE45A
:1008B10034FFFC7F0A7E001209C6AD3A7C00CFCD21
:1008C100CFCECCCE1201387C007D0A120138ED2446
:0808D10030FF120B5B1A80CD11
:0108D90022FC
:0300000002071DD7
:0C071D00787FE4F6D8FD75814102076486
:10000300E709F608DFFA8046E709F208DFFA803EDF
:1000130088828C83E709F0A3DFFA8032E309F608CC
:10002300DFFA8078E309F208DFFA807088828C8334
:10003300E309F0A3DFFA806489828A83E0A3F608E8
:10004300DFFA805889828A83E0A3F208DFFA804CC2
:1000530080D280FA80C680D4806980F28033801099
:1000630080A680EA809A80A880DA80E280CA803302
:1000730089828A83ECFAE493A3C8C582C8CCC5837A
:10008300CCF0A3C8C582C8CCC583CCDFE9DEE7804A
:100093000D89828A83E493A3F608DFF9ECFAA9F0C9
:1000A300EDFB2289828A83ECFAE0A3C8C582C8CC1F
:1000B300C583CCF0A3C8C582C8CCC583CCDFEADE38
:1000C300E880DB89828A83E493A3F208DFF980CC9A
:1000D30088F0EF60010E4E60C388F0ED2402B40493
:1000E3000050B9F582EB2402B4040050AF2323453A
:0600F3008223900053730C
:1000F900BB010CE58229F582E5833AF583E02250BC
:1001090006E92582F8E622BBFE06E92582F8E22205
:0D011900E58229F582E5833AF583E493221F
:10012600EF8DF0A4A8F0CF8CF0A428CE8DF0A42EED
:02013600FE22A7
:10013800C2D5EC30E709B2D5E4C39DFDE49CFCEEE2
:1001480030E715B2D5E4C39FFFE49EFE120181C3D8
:10015800E49DFDE49CFC800312018130D507C3E4D3
:060168009FFFE49EFE2251
:10016E00E8600FECC313FCED13FDEE13FEEF13FF6F
:03017E00D8F12293
:100729000204C6E493A3F8E493A34003F68001F21C
:1007390008DFF48029E493A3F85407240CC8C333D1
:10074900C4540F4420C8834004F456800146F6DFA0
:10075900E4800B0102040810204080900B29E47EFC
:10076900019360BCA3FF543F30E509541FFEE49395
:10077900A360010ECF54C025E060A840B8E493A35C
:10078900FAE493A3F8E493A3C8C582C8CAC583CA87
:10079900F0A3C8C582C8CAC583CADFE9DEE780BE3F
:010B3E0000B6
:10018100BC000BBE0029EF8DF084FFADF022E4CC62
:10019100F875F008EF2FFFEE33FEEC33FCEE9DEC2B
:1001A100984005FCEE9DFE0FD5F0E9E4CEFD22ED71
:1001B100F8F5F0EE8420D21CFEADF075F008EF2FBB
:1001C100FFED33FD4007985006D5F0F222C398FDAC
:0501D1000FD5F0EA2249
:00000001FF
